{
  "contractName": "TodoList",
  "abi": [
    {
      "anonymous": false,
      "inputs": [
        {
          "indexed": false,
          "internalType": "string",
          "name": "listName",
          "type": "string"
        }
      ],
      "name": "ListCreated",
      "type": "event"
    },
    {
      "inputs": [
        {
          "internalType": "string",
          "name": "listName",
          "type": "string"
        }
      ],
      "name": "createList",
      "outputs": [],
      "stateMutability": "nonpayable",
      "type": "function"
    },
    {
      "inputs": [],
      "name": "getAllListNames",
      "outputs": [
        {
          "internalType": "string",
          "name": "",
          "type": "string"
        }
      ],
      "stateMutability": "view",
      "type": "function"
    },
    {
      "inputs": [],
      "name": "getListItems",
      "outputs": [
        {
          "internalType": "string",
          "name": "",
          "type": "string"
        }
      ],
      "stateMutability": "view",
      "type": "function"
    },
    {
      "inputs": [],
      "name": "updateList",
      "outputs": [],
      "stateMutability": "nonpayable",
      "type": "function"
    }
  ],
  "bytecode": "0x608060405234801561001057600080fd5b5061052c806100206000396000f3fe608060405234801561001057600080fd5b506004361061004c5760003560e01c80631ae9dba3146100515780635d27ddb41461005b578063b8b6b7a814610079578063b8dcc68f14610097575b600080fd5b6100596100b3565b005b6100636100b5565b60405161007091906102e1565b60405180910390f35b6100816100f2565b60405161008e91906102e1565b60405180910390f35b6100b160048036038101906100ac919061044c565b61012f565b005b565b60606040518060400160405280600b81526020017f68656c6c6f20776f726c64000000000000000000000000000000000000000000815250905090565b60606040518060400160405280600b81526020017f68656c6c6f20776f726c64000000000000000000000000000000000000000000815250905090565b60008190806001815401808255809150506001900390600052602060002001600090919091909150908051906020019061016a9291906101a5565b507f3a034d392c7b1e79de586c80fa30fbf79ffb34beab74f35d75ae500ec41101388160405161019a91906102e1565b60405180910390a150565b8280546101b1906104c4565b90600052602060002090601f0160209004810192826101d3576000855561021a565b82601f106101ec57805160ff191683800117855561021a565b8280016001018555821561021a579182015b828111156102195782518255916020019190600101906101fe565b5b509050610227919061022b565b5090565b5b8082111561024457600081600090555060010161022c565b5090565b600081519050919050565b600082825260208201905092915050565b60005b83811015610282578082015181840152602081019050610267565b83811115610291576000848401525b50505050565b6000601f19601f8301169050919050565b60006102b382610248565b6102bd8185610253565b93506102cd818560208601610264565b6102d681610297565b840191505092915050565b600060208201905081810360008301526102fb81846102a8565b905092915050565b6000604051905090565b600080fd5b600080fd5b600080fd5b600080fd5b7f4e487b7100000000000000000000000000000000000000000000000000000000600052604160045260246000fd5b61035982610297565b810181811067ffffffffffffffff8211171561037857610377610321565b5b80604052505050565b600061038b610303565b90506103978282610350565b919050565b600067ffffffffffffffff8211156103b7576103b6610321565b5b6103c082610297565b9050602081019050919050565b82818337600083830152505050565b60006103ef6103ea8461039c565b610381565b90508281526020810184848401111561040b5761040a61031c565b5b6104168482856103cd565b509392505050565b600082601f83011261043357610432610317565b5b81356104438482602086016103dc565b91505092915050565b6000602082840312156104625761046161030d565b5b600082013567ffffffffffffffff8111156104805761047f610312565b5b61048c8482850161041e565b91505092915050565b7f4e487b7100000000000000000000000000000000000000000000000000000000600052602260045260246000fd5b600060028204905060018216806104dc57607f821691505b602082108114156104f0576104ef610495565b5b5091905056fea26469706673582212204911178d911a32cb5088f77633a2eab3d2360a064f0caa41c268af774052e85264736f6c63430008090033",
  "immutableReferences": {},
  "source": "// SPDX-License-Identifier: MIT\npragma solidity ^0.8.0;\n\n\ncontract TodoList {\n  string[] lists;\n  mapping( string=> Item[]) listItemsMap;\n  struct Item{\n    string name;\n    bool checked;\n  }\n\n  event ListCreated(string listName);\n\n  function createList(string memory listName) public {\n\n    lists.push(listName);\n    emit ListCreated(listName);\n  }\n\n  function getAllListNames() public view returns (string memory) {\n    return \"hello world\";\n  }\n\n  function getListItems() public view returns (string memory) {\n    return \"hello world\";\n  }\n\n  function updateList() public {\n  }\n}",
  "sourcePath": "C:\\projetos\\tutorial\\firstsolidity\\decentralized-todo-list\\contracts\\TodoList.sol",
  "compiler": {
    "name": "solc",
    "version": "0.8.9+commit.e5eed63a.Emscripten.clang"
  },
  "schemaVersion": "3.4.3",
  "updatedAt": "2021-10-07T13:47:16.460Z",
  "devdoc": {
    "kind": "dev",
    "methods": {},
    "version": 1
  },
  "userdoc": {
    "kind": "user",
    "methods": {},
    "version": 1
  }
}